S019000045787465726E616C496E746572727570742E73726563FB
S11300000C9434000C9462000C9446000C9446004A
S11300100C9446000C9446000C9446000C94460044
S11300200C9446000C9446000C9446000C94460034
S11300300C9446000C9446000C9446000C94460024
S11300400C9446000C9446000C9446000C94460014
S11300500C9446000C9446000C9446000C94460004
S11300600C9446000C94460011241FBECFEFD8E038
S1130070DEBFCDBF21E0A0E0B1E001C01D92A13000
S1130080B207E1F70E9448000C9477000C9400003A
S1130090569AE9E6F0E0808183608083E89A809153
S11300A00001811102C07894FACFF8942FEF81EE09
S11300B094E0215080409040E1F700C0000010928D
S11300C00001EDCF1F920F920FB60F9211248F9360
S11300D09F939BB180E489278BB981E080930001D1
S11300E09F918F910F900FBE0F901F901895F894C9
S10500F0FFCF3C
S9030000FC
