:100000000C9434000C9449000C9449000C94490061
:100010000C9449000C9449000C9449000C9449003C
:100020000C9449000C9449000C9449000C9449002C
:100030000C9449000C9449000C9449000C9449001C
:100040000C9470000C9449000C9449000C944900E5
:100050000C9449000C9449000C9449000C944900FC
:100060000C9449000C94490011241FBECFEFD8E036
:10007000DEBFCDBF11E0A0E0B1E0E4E1F4E002C0FA
:1000800005900D92A430B107D9F70E944B000C9453
:1000900008020C940000569A84B5836884BDEEE68D
:1000A000F0E08081816080836091000170910101A6
:1000B000809102019091030120E030E048EC52E48D
:1000C0000E94A90020E030E04FE753E40E949B012A
:1000D0000E941B0167BD789485B5846085BDFFCF04
:1000E0001F920F920FB60F9211242F933F934F93AD
:1000F0005F936F937F938F939F93AF93BF93EF9390
:10010000FF93609100017091010180910201909133
:10011000030120E030E048EC52E40E94A90020E016
:1001200030E04FE753E40E949B010E941B0167BD32
:10013000FF91EF91BF91AF919F918F917F916F91BF
:100140005F914F913F912F910F900FBE0F901F9095
:1001500018950E94BD000C9461010E945A0158F04C
:100160000E94530140F029F45F3F29F00C944A01AA
:1001700051110C9495010C9450010E94720168F386
:100180009923B1F3552391F3951B550BBB27AA2750
:1001900062177307840738F09F5F5F4F220F331F8A
:1001A000441FAA1FA9F335D00E2E3AF0E0E832D052
:1001B00091505040E695001CCAF72BD0FE2F29D055
:1001C000660F771F881FBB1F261737074807AB0727
:1001D000B0E809F0BB0B802DBF01FF2793585F4F9C
:1001E0003AF09E3F510578F00C944A010C94950129
:1001F0005F3FE4F3983ED4F3869577956795B7957E
:10020000F7959F5FC9F7880F911D9695879597F988
:100210000895E1E0660F771F881FBB1F6217730701
:100220008407BA0720F0621B730B840BBA0BEE1F16
:1002300088F7E09508950E947A0188F09F5798F01A
:10024000B92F9927B751B0F0E1F0660F771F881FDB
:10025000991F1AF0BA95C9F714C0B13091F00E94F5
:100260009401B1E008950C949401672F782F8827AA
:10027000B85F39F0B93FCCF3869577956795B3951C
:10028000D9F73EF490958095709561957F4F8F4F8B
:100290009F4F089597F99F6780E870E060E00895A8
:1002A0009FEF80EC089500240A941616170618068E
:1002B0000906089500240A9412161306140605066A
:1002C0000895092E0394000C11F4882352F0BB0FFB
:1002D00040F4BF2B11F460FF04C06F5F7F4F8F4F5E
:1002E0009F4F089557FD9058440F551F59F05F3F99
:1002F00071F04795880F97FB991F61F09F3F79F048
:1003000087950895121613061406551FF2CF4695C9
:10031000F1DF08C0161617061806991FF1CF86954B
:100320007105610508940895E894BB27662777272F
:10033000CB0197F908950E94AE010C9461010E94CF
:10034000530138F00E945A0120F0952311F00C94CB
:100350004A010C94500111240C9495010E947201E1
:1003600070F3959FC1F3950F50E0551F629FF00108
:10037000729FBB27F00DB11D639FAA27F00DB11D21
:10038000AA1F649F6627B00DA11D661F829F2227AA
:10039000B00DA11D621F739FB00DA11D621F839F31
:1003A000A00D611D221F749F3327A00D611D231F07
:1003B000849F600D211D822F762F6A2F11249F5755
:1003C00050409AF0F1F088234AF0EE0FFF1FBB1F58
:1003D000661F771F881F91505040A9F79E3F510517
:1003E00080F00C944A010C9495015F3FE4F3983E31
:1003F000D4F3869577956795B795F795E7959F5FC1
:10040000C1F7FE2B880F911D9695879597F9089552
:04041000F894FFCF8E
:04041400000018428A
:00000001FF
