S00B00004D49582E737265632B
S11300000C9434000C9446000C9446000C94460066
S11300100C9446000C9446000C9446000C94460044
S11300200C9446000C9446000C9446000C94EA0090
S11300300C9446000C9446000C9446000C94460024
S11300400C9482000C9446000C9446000C944600D8
S11300500C9446000C94AF000C9446000C9446009B
S11300600C9446000C94460011241FBECFEFD8E038
S1130070DEBFCDBF21E0A0E0B1E001C01D92A430FD
S1130080B207E1F70E9448000C9491010C9400001F
S11300908AB180678AB984B5836884BD85B5826076
S11300A085BDEEE6F0E0808181608083ECE7F0E0DE
S11300B0808181648083EAE7F0E080818F6C8083B3
S11300C082E080937E00E1E8F0E080818C608083B0
S11300D082E19AE79093890080938800EFE6F0E04C
S11300E0808182608083789490E28BB189278BB978
S11300F02FEF31EE84E0215030408040E1F700C022
S11301000000F3CF1F920F920FB60F9211242F937A
S11301103F934F935F936F937F938F939F93AF938B
S1130120BF93EF93FF93609100017091010180915F
S11301300201909103010E94FC0067BDFF91EF91C1
S1130140BF91AF919F918F917F916F915F914F91EB
S11301503F912F910F900FBE0F901F9018951F92F3
S11301600F920FB60F9211242F933F934F935F93E7
S11301706F937F938F939F93AF93BF93EF93FF936B
S1130180609178007091790076956795769567957A
S113019080E090E00E942B016093000170930101C4
S11301A08093020190930301EAE7F0E08081806488
S11301B08083FF91EF91BF91AF919F918F917F9138
S11301C06F915F914F913F912F910F900FBE0F90C0
S11301D01F9018951F920F920FB60F9211248F93B0
S11301E09F939BB180E189278BB99F918F910F9049
S11301F00FBE0F901F9018950E94700188F09F57B2
S113020098F0B92F9927B751B0F0E1F0660F771F36
S1130210881F991F1AF0BA95C9F714C0B13091F02C
S11302200E948A01B1E008950C948A01672F782F07
S11302308827B85F39F0B93FCCF3869577956795F1
S1130240B395D9F73EF490958095709561957F4F5D
S11302508F4F9F4F0895E89409C097FB3EF4909503
S11302608095709561957F4F8F4F9F4F9923A9F08B
S1130270F92F96E9BB279395F6958795779567951A
S1130280B795F111F8CFFAF4BB0F11F460FF1BC05E
S11302906F5F7F4F8F4F9F4F16C0882311F096E9F1
S11302A011C0772321F09EE8872F762F05C066239F
S11302B071F096E8862F70E060E02AF09A95660F58
S11302C0771F881FDAF7880F9695879597F9089511
S11302D057FD9058440F551F59F05F3F71F04795F3
S11302E0880F97FB991F61F09F3F79F087950895D8
S11302F0121613061406551FF2CF4695F1DF08C0F7
S1130300161617061806991FF1CF86957105610513
S113031008940895E894BB2766277727CB0197F9BB
S10903200895F894FFCFDC
S9030000FC
