S016000055534152545F70696F6E746572732E73726563AC
S11300000C9434000C9451000C9451000C94510045
S11300100C9451000C9451000C9451000C94510018
S11300200C9451000C9451000C9451000C94510008
S11300300C9451000C9451000C9451000C945100F8
S11300400C9451000C9451000C9481000C945100B8
S11300500C9451000C9451000C9451000C945100D8
S11300600C9451000C94510011241FBECFEFD8E022
S1130070DEBFCDBF11E0A0E0B1E0ECE2F1E002C0F0
S113008005900D92AE30B107D9F721E0AEE0B1E0B2
S113009001C01D92AF30B207E1F70E9478000C94C2
S11300A094000C940000E1ECF0E088E1808386E0A9
S11300B08093C20087E68093C40080818068808337
S11300C078940895CF93DF93FC012081222369F073
S11300D0DC011196E0ECF0E0C6ECD0E0908195FFF5
S11300E0FDCF28832D912111F9CFDF91CF91089570
S11300F0259A0E945300789480E091E00E94620067
S1130100FFCF1F920F920FB60F9211248F938091FD
S1130110C60080930E018F3309F42D9A8F910F90AE
S10F01200FBE0F901F901895F894FFCFAD
S111012C48656C6C6F2C20776F726C64210038
S9030000FC
