S014000054696D6572436F756E7465722E737265632F
S11300000C9434000C9446000C9446000C94460066
S11300100C9446000C9446000C9446000C94460044
S11300200C9446000C9446000C9446000C94460034
S11300300C9446000C9446000C9458000C94460012
S11300400C9446000C9446000C9446000C94460014
S11300500C9446000C9446000C9446000C94460004
S11300600C9446000C94460011241FBECFEFD8E038
S1130070DEBFCDBF21E0A0E0B1E001C01D92A13000
S1130080B207E1F70E9448000C9475000C9400003C
S1130090259A84B5826084BD85B5856085BDEEE60C
S11300A0F0E08081826080838BE987BD7894FFCF04
S11300B01F920F920FB60F9211248F939F938091EA
S11300C000018F5F8093000180910001843631F438
S11300D095B180E2892785B9109200019F918F9193
S11100E00F900FBE0F901F901895F894FFCF4D
S9030000FC
